{
  "contractName": "NFT",
  "abi": [
    {
      "inputs": [
        {
          "internalType": "string",
          "name": "_name",
          "type": "string"
        },
        {
          "internalType": "string",
          "name": "_symbol",
          "type": "string"
        },
        {
          "internalType": "string",
          "name": "_initBaseURI",
          "type": "string"
        },
        {
          "internalType": "uint256",
          "name": "_royalityFee",
          "type": "uint256"
        },
        {
          "internalType": "address",
          "name": "_artist",
          "type": "address"
        }
      ],
      "stateMutability": "nonpayable",
      "type": "constructor"
    },
    {
      "anonymous": false,
      "inputs": [
        {
          "indexed": true,
          "internalType": "address",
          "name": "owner",
          "type": "address"
        },
        {
          "indexed": true,
          "internalType": "address",
          "name": "approved",
          "type": "address"
        },
        {
          "indexed": true,
          "internalType": "uint256",
          "name": "tokenId",
          "type": "uint256"
        }
      ],
      "name": "Approval",
      "type": "event"
    },
    {
      "anonymous": false,
      "inputs": [
        {
          "indexed": true,
          "internalType": "address",
          "name": "owner",
          "type": "address"
        },
        {
          "indexed": true,
          "internalType": "address",
          "name": "operator",
          "type": "address"
        },
        {
          "indexed": false,
          "internalType": "bool",
          "name": "approved",
          "type": "bool"
        }
      ],
      "name": "ApprovalForAll",
      "type": "event"
    },
    {
      "anonymous": false,
      "inputs": [
        {
          "indexed": true,
          "internalType": "address",
          "name": "previousOwner",
          "type": "address"
        },
        {
          "indexed": true,
          "internalType": "address",
          "name": "newOwner",
          "type": "address"
        }
      ],
      "name": "OwnershipTransferred",
      "type": "event"
    },
    {
      "anonymous": false,
      "inputs": [
        {
          "indexed": false,
          "internalType": "address",
          "name": "from",
          "type": "address"
        },
        {
          "indexed": false,
          "internalType": "address",
          "name": "to",
          "type": "address"
        },
        {
          "indexed": false,
          "internalType": "uint256",
          "name": "value",
          "type": "uint256"
        }
      ],
      "name": "Sale",
      "type": "event"
    },
    {
      "anonymous": false,
      "inputs": [
        {
          "indexed": true,
          "internalType": "address",
          "name": "from",
          "type": "address"
        },
        {
          "indexed": true,
          "internalType": "address",
          "name": "to",
          "type": "address"
        },
        {
          "indexed": true,
          "internalType": "uint256",
          "name": "tokenId",
          "type": "uint256"
        }
      ],
      "name": "Transfer",
      "type": "event"
    },
    {
      "inputs": [
        {
          "internalType": "address",
          "name": "to",
          "type": "address"
        },
        {
          "internalType": "uint256",
          "name": "tokenId",
          "type": "uint256"
        }
      ],
      "name": "approve",
      "outputs": [],
      "stateMutability": "nonpayable",
      "type": "function"
    },
    {
      "inputs": [],
      "name": "artist",
      "outputs": [
        {
          "internalType": "address",
          "name": "",
          "type": "address"
        }
      ],
      "stateMutability": "view",
      "type": "function",
      "constant": true
    },
    {
      "inputs": [
        {
          "internalType": "address",
          "name": "owner",
          "type": "address"
        }
      ],
      "name": "balanceOf",
      "outputs": [
        {
          "internalType": "uint256",
          "name": "",
          "type": "uint256"
        }
      ],
      "stateMutability": "view",
      "type": "function",
      "constant": true
    },
    {
      "inputs": [],
      "name": "baseExtension",
      "outputs": [
        {
          "internalType": "string",
          "name": "",
          "type": "string"
        }
      ],
      "stateMutability": "view",
      "type": "function",
      "constant": true
    },
    {
      "inputs": [],
      "name": "cost",
      "outputs": [
        {
          "internalType": "uint256",
          "name": "",
          "type": "uint256"
        }
      ],
      "stateMutability": "view",
      "type": "function",
      "constant": true
    },
    {
      "inputs": [
        {
          "internalType": "uint256",
          "name": "tokenId",
          "type": "uint256"
        }
      ],
      "name": "getApproved",
      "outputs": [
        {
          "internalType": "address",
          "name": "",
          "type": "address"
        }
      ],
      "stateMutability": "view",
      "type": "function",
      "constant": true
    },
    {
      "inputs": [
        {
          "internalType": "address",
          "name": "owner",
          "type": "address"
        },
        {
          "internalType": "address",
          "name": "operator",
          "type": "address"
        }
      ],
      "name": "isApprovedForAll",
      "outputs": [
        {
          "internalType": "bool",
          "name": "",
          "type": "bool"
        }
      ],
      "stateMutability": "view",
      "type": "function",
      "constant": true
    },
    {
      "inputs": [],
      "name": "maxSupply",
      "outputs": [
        {
          "internalType": "uint256",
          "name": "",
          "type": "uint256"
        }
      ],
      "stateMutability": "view",
      "type": "function",
      "constant": true
    },
    {
      "inputs": [],
      "name": "name",
      "outputs": [
        {
          "internalType": "string",
          "name": "",
          "type": "string"
        }
      ],
      "stateMutability": "view",
      "type": "function",
      "constant": true
    },
    {
      "inputs": [],
      "name": "owner",
      "outputs": [
        {
          "internalType": "address",
          "name": "",
          "type": "address"
        }
      ],
      "stateMutability": "view",
      "type": "function",
      "constant": true
    },
    {
      "inputs": [
        {
          "internalType": "uint256",
          "name": "tokenId",
          "type": "uint256"
        }
      ],
      "name": "ownerOf",
      "outputs": [
        {
          "internalType": "address",
          "name": "",
          "type": "address"
        }
      ],
      "stateMutability": "view",
      "type": "function",
      "constant": true
    },
    {
      "inputs": [],
      "name": "renounceOwnership",
      "outputs": [],
      "stateMutability": "nonpayable",
      "type": "function"
    },
    {
      "inputs": [],
      "name": "royalityFee",
      "outputs": [
        {
          "internalType": "uint256",
          "name": "",
          "type": "uint256"
        }
      ],
      "stateMutability": "view",
      "type": "function",
      "constant": true
    },
    {
      "inputs": [
        {
          "internalType": "address",
          "name": "operator",
          "type": "address"
        },
        {
          "internalType": "bool",
          "name": "approved",
          "type": "bool"
        }
      ],
      "name": "setApprovalForAll",
      "outputs": [],
      "stateMutability": "nonpayable",
      "type": "function"
    },
    {
      "inputs": [
        {
          "internalType": "bytes4",
          "name": "interfaceId",
          "type": "bytes4"
        }
      ],
      "name": "supportsInterface",
      "outputs": [
        {
          "internalType": "bool",
          "name": "",
          "type": "bool"
        }
      ],
      "stateMutability": "view",
      "type": "function",
      "constant": true
    },
    {
      "inputs": [],
      "name": "symbol",
      "outputs": [
        {
          "internalType": "string",
          "name": "",
          "type": "string"
        }
      ],
      "stateMutability": "view",
      "type": "function",
      "constant": true
    },
    {
      "inputs": [
        {
          "internalType": "uint256",
          "name": "index",
          "type": "uint256"
        }
      ],
      "name": "tokenByIndex",
      "outputs": [
        {
          "internalType": "uint256",
          "name": "",
          "type": "uint256"
        }
      ],
      "stateMutability": "view",
      "type": "function",
      "constant": true
    },
    {
      "inputs": [
        {
          "internalType": "address",
          "name": "owner",
          "type": "address"
        },
        {
          "internalType": "uint256",
          "name": "index",
          "type": "uint256"
        }
      ],
      "name": "tokenOfOwnerByIndex",
      "outputs": [
        {
          "internalType": "uint256",
          "name": "",
          "type": "uint256"
        }
      ],
      "stateMutability": "view",
      "type": "function",
      "constant": true
    },
    {
      "inputs": [],
      "name": "totalSupply",
      "outputs": [
        {
          "internalType": "uint256",
          "name": "",
          "type": "uint256"
        }
      ],
      "stateMutability": "view",
      "type": "function",
      "constant": true
    },
    {
      "inputs": [
        {
          "internalType": "address",
          "name": "newOwner",
          "type": "address"
        }
      ],
      "name": "transferOwnership",
      "outputs": [],
      "stateMutability": "nonpayable",
      "type": "function"
    },
    {
      "inputs": [],
      "name": "mint",
      "outputs": [],
      "stateMutability": "payable",
      "type": "function",
      "payable": true
    },
    {
      "inputs": [
        {
          "internalType": "uint256",
          "name": "tokenId",
          "type": "uint256"
        }
      ],
      "name": "tokenURI",
      "outputs": [
        {
          "internalType": "string",
          "name": "",
          "type": "string"
        }
      ],
      "stateMutability": "view",
      "type": "function",
      "constant": true
    },
    {
      "inputs": [
        {
          "internalType": "address",
          "name": "from",
          "type": "address"
        },
        {
          "internalType": "address",
          "name": "to",
          "type": "address"
        },
        {
          "internalType": "uint256",
          "name": "tokenId",
          "type": "uint256"
        }
      ],
      "name": "transferFrom",
      "outputs": [],
      "stateMutability": "payable",
      "type": "function",
      "payable": true
    },
    {
      "inputs": [
        {
          "internalType": "address",
          "name": "from",
          "type": "address"
        },
        {
          "internalType": "address",
          "name": "to",
          "type": "address"
        },
        {
          "internalType": "uint256",
          "name": "tokenId",
          "type": "uint256"
        }
      ],
      "name": "safeTransferFrom",
      "outputs": [],
      "stateMutability": "payable",
      "type": "function",
      "payable": true
    },
    {
      "inputs": [
        {
          "internalType": "address",
          "name": "from",
          "type": "address"
        },
        {
          "internalType": "address",
          "name": "to",
          "type": "address"
        },
        {
          "internalType": "uint256",
          "name": "tokenId",
          "type": "uint256"
        },
        {
          "internalType": "bytes",
          "name": "_data",
          "type": "bytes"
        }
      ],
      "name": "safeTransferFrom",
      "outputs": [],
      "stateMutability": "payable",
      "type": "function",
      "payable": true
    },
    {
      "inputs": [
        {
          "internalType": "string",
          "name": "_newBaseURI",
          "type": "string"
        }
      ],
      "name": "setBaseURI",
      "outputs": [],
      "stateMutability": "nonpayable",
      "type": "function"
    },
    {
      "inputs": [
        {
          "internalType": "uint256",
          "name": "_royalityFee",
          "type": "uint256"
        }
      ],
      "name": "setRoyalityFee",
      "outputs": [],
      "stateMutability": "nonpayable",
      "type": "function"
    }
  ],
  "bytecode": "0x6080604052670de0b6b3a7640000600b556014600c556040518060400160405280600581526020017f2e6a736f6e000000000000000000000000000000000000000000000000000000815250600e908051906020019062000062929190620002f3565b503480156200007057600080fd5b50604051620046b1380380620046b18339818101604052810190620000969190620005e0565b84848160009080519060200190620000b0929190620002f3565b508060019080519060200190620000c9929190620002f3565b505050620000ec620000e06200015060201b60201c565b6200015860201b60201c565b620000fd836200021e60201b60201c565b8160108190555080600f60006101000a81548173ffffffffffffffffffffffffffffffffffffffff021916908373ffffffffffffffffffffffffffffffffffffffff1602179055505050505050620007ad565b600033905090565b6000600a60009054906101000a900473ffffffffffffffffffffffffffffffffffffffff16905081600a60006101000a81548173ffffffffffffffffffffffffffffffffffffffff021916908373ffffffffffffffffffffffffffffffffffffffff1602179055508173ffffffffffffffffffffffffffffffffffffffff168173ffffffffffffffffffffffffffffffffffffffff167f8be0079c531659141344cd1fd0a4f28419497f9722a3daafe3b4186f6b6457e060405160405180910390a35050565b6200022e6200015060201b60201c565b73ffffffffffffffffffffffffffffffffffffffff1662000254620002c960201b60201c565b73ffffffffffffffffffffffffffffffffffffffff1614620002ad576040517f08c379a0000000000000000000000000000000000000000000000000000000008152600401620002a49062000726565b60405180910390fd5b80600d9080519060200190620002c5929190620002f3565b5050565b6000600a60009054906101000a900473ffffffffffffffffffffffffffffffffffffffff16905090565b828054620003019062000777565b90600052602060002090601f01602090048101928262000325576000855562000371565b82601f106200034057805160ff191683800117855562000371565b8280016001018555821562000371579182015b828111156200037057825182559160200191906001019062000353565b5b50905062000380919062000384565b5090565b5b808211156200039f57600081600090555060010162000385565b5090565b6000604051905090565b600080fd5b600080fd5b600080fd5b600080fd5b6000601f19601f8301169050919050565b7f4e487b7100000000000000000000000000000000000000000000000000000000600052604160045260246000fd5b6200040c82620003c1565b810181811067ffffffffffffffff821117156200042e576200042d620003d2565b5b80604052505050565b600062000443620003a3565b905062000451828262000401565b919050565b600067ffffffffffffffff821115620004745762000473620003d2565b5b6200047f82620003c1565b9050602081019050919050565b60005b83811015620004ac5780820151818401526020810190506200048f565b83811115620004bc576000848401525b50505050565b6000620004d9620004d38462000456565b62000437565b905082815260208101848484011115620004f857620004f7620003bc565b5b620005058482856200048c565b509392505050565b600082601f830112620005255762000524620003b7565b5b815162000537848260208601620004c2565b91505092915050565b6000819050919050565b620005558162000540565b81146200056157600080fd5b50565b60008151905062000575816200054a565b92915050565b600073ffffffffffffffffffffffffffffffffffffffff82169050919050565b6000620005a8826200057b565b9050919050565b620005ba816200059b565b8114620005c657600080fd5b50565b600081519050620005da81620005af565b92915050565b600080600080600060a08688031215620005ff57620005fe620003ad565b5b600086015167ffffffffffffffff81111562000620576200061f620003b2565b5b6200062e888289016200050d565b955050602086015167ffffffffffffffff811115620006525762000651620003b2565b5b62000660888289016200050d565b945050604086015167ffffffffffffffff811115620006845762000683620003b2565b5b62000692888289016200050d565b9350506060620006a58882890162000564565b9250506080620006b888828901620005c9565b9150509295509295909350565b600082825260208201905092915050565b7f4f776e61626c653a2063616c6c6572206973206e6f7420746865206f776e6572600082015250565b60006200070e602083620006c5565b91506200071b82620006d6565b602082019050919050565b600060208201905081810360008301526200074181620006ff565b9050919050565b7f4e487b7100000000000000000000000000000000000000000000000000000000600052602260045260246000fd5b600060028204905060018216806200079057607f821691505b60208210811415620007a757620007a662000748565b5b50919050565b613ef480620007bd6000396000f3fe60806040526004361061019c5760003560e01c806355f804b3116100ec578063a22cb4651161008a578063c87b56dd11610064578063c87b56dd14610580578063d5abeb01146105bd578063e985e9c5146105e8578063f2fde38b146106255761019c565b8063a22cb46514610510578063b88d4fde14610539578063c6682862146105555761019c565b8063715018a6116100c6578063715018a61461047a5780638da5cb5b1461049157806395d89b41146104bc57806398f24682146104e75761019c565b806355f804b3146103d75780636352211e1461040057806370a082311461043d5761019c565b806318160ddd11610159578063326bb4ad11610133578063326bb4ad1461032857806342842e0e1461035357806343bc16121461036f5780634f6ccce71461039a5761019c565b806318160ddd146102a457806323b872dd146102cf5780632f745c59146102eb5761019c565b806301ffc9a7146101a157806306fdde03146101de578063081812fc14610209578063095ea7b3146102465780631249c58b1461026f57806313faede614610279575b600080fd5b3480156101ad57600080fd5b506101c860048036038101906101c391906129c4565b61064e565b6040516101d59190612a0c565b60405180910390f35b3480156101ea57600080fd5b506101f36106c8565b6040516102009190612ac0565b60405180910390f35b34801561021557600080fd5b50610230600480360381019061022b9190612b18565b61075a565b60405161023d9190612b86565b60405180910390f35b34801561025257600080fd5b5061026d60048036038101906102689190612bcd565b6107df565b005b6102776108f7565b005b34801561028557600080fd5b5061028e610a26565b60405161029b9190612c1c565b60405180910390f35b3480156102b057600080fd5b506102b9610a2c565b6040516102c69190612c1c565b60405180910390f35b6102e960048036038101906102e49190612c37565b610a39565b005b3480156102f757600080fd5b50610312600480360381019061030d9190612bcd565b610b88565b60405161031f9190612c1c565b60405180910390f35b34801561033457600080fd5b5061033d610c2d565b60405161034a9190612c1c565b60405180910390f35b61036d60048036038101906103689190612c37565b610c33565b005b34801561037b57600080fd5b50610384610d42565b6040516103919190612b86565b60405180910390f35b3480156103a657600080fd5b506103c160048036038101906103bc9190612b18565b610d68565b6040516103ce9190612c1c565b60405180910390f35b3480156103e357600080fd5b506103fe60048036038101906103f99190612dbf565b610dd9565b005b34801561040c57600080fd5b5061042760048036038101906104229190612b18565b610e6f565b6040516104349190612b86565b60405180910390f35b34801561044957600080fd5b50610464600480360381019061045f9190612e08565b610f21565b6040516104719190612c1c565b60405180910390f35b34801561048657600080fd5b5061048f610fd9565b005b34801561049d57600080fd5b506104a6611061565b6040516104b39190612b86565b60405180910390f35b3480156104c857600080fd5b506104d161108b565b6040516104de9190612ac0565b60405180910390f35b3480156104f357600080fd5b5061050e60048036038101906105099190612b18565b61111d565b005b34801561051c57600080fd5b5061053760048036038101906105329190612e61565b6111a3565b005b610553600480360381019061054e9190612f42565b6111b9565b005b34801561056157600080fd5b5061056a61130a565b6040516105779190612ac0565b60405180910390f35b34801561058c57600080fd5b506105a760048036038101906105a29190612b18565b611398565b6040516105b49190612ac0565b60405180910390f35b3480156105c957600080fd5b506105d2611442565b6040516105df9190612c1c565b60405180910390f35b3480156105f457600080fd5b5061060f600480360381019061060a9190612fc5565b611448565b60405161061c9190612a0c565b60405180910390f35b34801561063157600080fd5b5061064c60048036038101906106479190612e08565b6114dc565b005b60007f780e9d63000000000000000000000000000000000000000000000000000000007bffffffffffffffffffffffffffffffffffffffffffffffffffffffff1916827bffffffffffffffffffffffffffffffffffffffffffffffffffffffff191614806106c157506106c0826115d4565b5b9050919050565b6060600080546106d790613034565b80601f016020809104026020016040519081016040528092919081815260200182805461070390613034565b80156107505780601f1061072557610100808354040283529160200191610750565b820191906000526020600020905b81548152906001019060200180831161073357829003601f168201915b5050505050905090565b6000610765826116b6565b6107a4576040517f08c379a000000000000000000000000000000000000000000000000000000000815260040161079b906130d8565b60405180910390fd5b6004600083815260200190815260200160002060009054906101000a900473ffffffffffffffffffffffffffffffffffffffff169050919050565b60006107ea82610e6f565b90508073ffffffffffffffffffffffffffffffffffffffff168373ffffffffffffffffffffffffffffffffffffffff16141561085b576040517f08c379a00000000000000000000000000000000000000000000000000000000081526004016108529061316a565b60405180910390fd5b8073ffffffffffffffffffffffffffffffffffffffff1661087a611722565b73ffffffffffffffffffffffffffffffffffffffff1614806108a957506108a8816108a3611722565b611448565b5b6108e8576040517f08c379a00000000000000000000000000000000000000000000000000000000081526004016108df906131fc565b60405180910390fd5b6108f2838361172a565b505050565b6000610901610a2c565b9050600c5481111561091257600080fd5b61091a611061565b73ffffffffffffffffffffffffffffffffffffffff163373ffffffffffffffffffffffffffffffffffffffff1614610a0d57600b5434101561095b57600080fd5b600060646010543461096d919061324b565b61097791906132d4565b9050610982816117e3565b600061098c611061565b73ffffffffffffffffffffffffffffffffffffffff1682346109ae9190613305565b6040516109ba9061336a565b60006040518083038185875af1925050503d80600081146109f7576040519150601f19603f3d011682016040523d82523d6000602084013e6109fc565b606091505b5050905080610a0a57600080fd5b50505b610a2333600183610a1e919061337f565b61187f565b50565b600b5481565b6000600880549050905090565b610a4a610a44611722565b8261189d565b610a89576040517f08c379a0000000000000000000000000000000000000000000000000000000008152600401610a8090613447565b60405180910390fd5b6000341115610b78576000606460105434610aa4919061324b565b610aae91906132d4565b9050610ab9816117e3565b60008473ffffffffffffffffffffffffffffffffffffffff168234610ade9190613305565b604051610aea9061336a565b60006040518083038185875af1925050503d8060008114610b27576040519150601f19603f3d011682016040523d82523d6000602084013e610b2c565b606091505b5050905080610b3a57600080fd5b7f3f3483d0995db4c081e0101ef6753bef457833c20605cd871de61dcb48085a9a858534604051610b6d93929190613467565b60405180910390a150505b610b8383838361197b565b505050565b6000610b9383610f21565b8210610bd4576040517f08c379a0000000000000000000000000000000000000000000000000000000008152600401610bcb90613510565b60405180910390fd5b600660008473ffffffffffffffffffffffffffffffffffffffff1673ffffffffffffffffffffffffffffffffffffffff168152602001908152602001600020600083815260200190815260200160002054905092915050565b60105481565b6000341115610d22576000606460105434610c4e919061324b565b610c5891906132d4565b9050610c63816117e3565b60008473ffffffffffffffffffffffffffffffffffffffff168234610c889190613305565b604051610c949061336a565b60006040518083038185875af1925050503d8060008114610cd1576040519150601f19603f3d011682016040523d82523d6000602084013e610cd6565b606091505b5050905080610ce457600080fd5b7f3f3483d0995db4c081e0101ef6753bef457833c20605cd871de61dcb48085a9a858534604051610d1793929190613467565b60405180910390a150505b610d3d838383604051806020016040528060008152506111b9565b505050565b600f60009054906101000a900473ffffffffffffffffffffffffffffffffffffffff1681565b6000610d72610a2c565b8210610db3576040517f08c379a0000000000000000000000000000000000000000000000000000000008152600401610daa906135a2565b60405180910390fd5b60088281548110610dc757610dc66135c2565b5b90600052602060002001549050919050565b610de1611722565b73ffffffffffffffffffffffffffffffffffffffff16610dff611061565b73ffffffffffffffffffffffffffffffffffffffff1614610e55576040517f08c379a0000000000000000000000000000000000000000000000000000000008152600401610e4c9061363d565b60405180910390fd5b80600d9080519060200190610e6b9291906128b5565b5050565b6000806002600084815260200190815260200160002060009054906101000a900473ffffffffffffffffffffffffffffffffffffffff169050600073ffffffffffffffffffffffffffffffffffffffff168173ffffffffffffffffffffffffffffffffffffffff161415610f18576040517f08c379a0000000000000000000000000000000000000000000000000000000008152600401610f0f906136cf565b60405180910390fd5b80915050919050565b60008073ffffffffffffffffffffffffffffffffffffffff168273ffffffffffffffffffffffffffffffffffffffff161415610f92576040517f08c379a0000000000000000000000000000000000000000000000000000000008152600401610f8990613761565b60405180910390fd5b600360008373ffffffffffffffffffffffffffffffffffffffff1673ffffffffffffffffffffffffffffffffffffffff168152602001908152602001600020549050919050565b610fe1611722565b73ffffffffffffffffffffffffffffffffffffffff16610fff611061565b73ffffffffffffffffffffffffffffffffffffffff1614611055576040517f08c379a000000000000000000000000000000000000000000000000000000000815260040161104c9061363d565b60405180910390fd5b61105f6000611bd7565b565b6000600a60009054906101000a900473ffffffffffffffffffffffffffffffffffffffff16905090565b60606001805461109a90613034565b80601f01602080910402602001604051908101604052809291908181526020018280546110c690613034565b80156111135780601f106110e857610100808354040283529160200191611113565b820191906000526020600020905b8154815290600101906020018083116110f657829003601f168201915b5050505050905090565b611125611722565b73ffffffffffffffffffffffffffffffffffffffff16611143611061565b73ffffffffffffffffffffffffffffffffffffffff1614611199576040517f08c379a00000000000000000000000000000000000000000000000000000000081526004016111909061363d565b60405180910390fd5b8060108190555050565b6111b56111ae611722565b8383611c9d565b5050565b6111ca6111c4611722565b8361189d565b611209576040517f08c379a000000000000000000000000000000000000000000000000000000000815260040161120090613447565b60405180910390fd5b60003411156112f8576000606460105434611224919061324b565b61122e91906132d4565b9050611239816117e3565b60008573ffffffffffffffffffffffffffffffffffffffff16823461125e9190613305565b60405161126a9061336a565b60006040518083038185875af1925050503d80600081146112a7576040519150601f19603f3d011682016040523d82523d6000602084013e6112ac565b606091505b50509050806112ba57600080fd5b7f3f3483d0995db4c081e0101ef6753bef457833c20605cd871de61dcb48085a9a8686346040516112ed93929190613467565b60405180910390a150505b61130484848484611e0a565b50505050565b600e805461131790613034565b80601f016020809104026020016040519081016040528092919081815260200182805461134390613034565b80156113905780601f1061136557610100808354040283529160200191611390565b820191906000526020600020905b81548152906001019060200180831161137357829003601f168201915b505050505081565b60606113a3826116b6565b6113e2576040517f08c379a00000000000000000000000000000000000000000000000000000000081526004016113d9906137f3565b60405180910390fd5b60006113ec611e66565b9050600081511161140c576040518060200160405280600081525061143a565b8061141684611ef8565b600e60405160200161142a939291906138e3565b6040516020818303038152906040525b915050919050565b600c5481565b6000600560008473ffffffffffffffffffffffffffffffffffffffff1673ffffffffffffffffffffffffffffffffffffffff16815260200190815260200160002060008373ffffffffffffffffffffffffffffffffffffffff1673ffffffffffffffffffffffffffffffffffffffff16815260200190815260200160002060009054906101000a900460ff16905092915050565b6114e4611722565b73ffffffffffffffffffffffffffffffffffffffff16611502611061565b73ffffffffffffffffffffffffffffffffffffffff1614611558576040517f08c379a000000000000000000000000000000000000000000000000000000000815260040161154f9061363d565b60405180910390fd5b600073ffffffffffffffffffffffffffffffffffffffff168173ffffffffffffffffffffffffffffffffffffffff1614156115c8576040517f08c379a00000000000000000000000000000000000000000000000000000000081526004016115bf90613986565b60405180910390fd5b6115d181611bd7565b50565b60007f80ac58cd000000000000000000000000000000000000000000000000000000007bffffffffffffffffffffffffffffffffffffffffffffffffffffffff1916827bffffffffffffffffffffffffffffffffffffffffffffffffffffffff1916148061169f57507f5b5e139f000000000000000000000000000000000000000000000000000000007bffffffffffffffffffffffffffffffffffffffffffffffffffffffff1916827bffffffffffffffffffffffffffffffffffffffffffffffffffffffff1916145b806116af57506116ae82612059565b5b9050919050565b60008073ffffffffffffffffffffffffffffffffffffffff166002600084815260200190815260200160002060009054906101000a900473ffffffffffffffffffffffffffffffffffffffff1673ffffffffffffffffffffffffffffffffffffffff1614159050919050565b600033905090565b816004600083815260200190815260200160002060006101000a81548173ffffffffffffffffffffffffffffffffffffffff021916908373ffffffffffffffffffffffffffffffffffffffff160217905550808273ffffffffffffffffffffffffffffffffffffffff1661179d83610e6f565b73ffffffffffffffffffffffffffffffffffffffff167f8c5be1e5ebec7d5bd14f71427d1e84f3dd0314c0f7b2291e5b200ac8c7c3b92560405160405180910390a45050565b6000600f60009054906101000a900473ffffffffffffffffffffffffffffffffffffffff1673ffffffffffffffffffffffffffffffffffffffff168260405161182b9061336a565b60006040518083038185875af1925050503d8060008114611868576040519150601f19603f3d011682016040523d82523d6000602084013e61186d565b606091505b505090508061187b57600080fd5b5050565b6118998282604051806020016040528060008152506120c3565b5050565b60006118a8826116b6565b6118e7576040517f08c379a00000000000000000000000000000000000000000000000000000000081526004016118de90613a18565b60405180910390fd5b60006118f283610e6f565b90508073ffffffffffffffffffffffffffffffffffffffff168473ffffffffffffffffffffffffffffffffffffffff16148061196157508373ffffffffffffffffffffffffffffffffffffffff166119498461075a565b73ffffffffffffffffffffffffffffffffffffffff16145b8061197257506119718185611448565b5b91505092915050565b8273ffffffffffffffffffffffffffffffffffffffff1661199b82610e6f565b73ffffffffffffffffffffffffffffffffffffffff16146119f1576040517f08c379a00000000000000000000000000000000000000000000000000000000081526004016119e890613aaa565b60405180910390fd5b600073ffffffffffffffffffffffffffffffffffffffff168273ffffffffffffffffffffffffffffffffffffffff161415611a61576040517f08c379a0000000000000000000000000000000000000000000000000000000008152600401611a5890613b3c565b60405180910390fd5b611a6c83838361211e565b611a7760008261172a565b6001600360008573ffffffffffffffffffffffffffffffffffffffff1673ffffffffffffffffffffffffffffffffffffffff1681526020019081526020016000206000828254611ac79190613305565b925050819055506001600360008473ffffffffffffffffffffffffffffffffffffffff1673ffffffffffffffffffffffffffffffffffffffff1681526020019081526020016000206000828254611b1e919061337f565b92505081905550816002600083815260200190815260200160002060006101000a81548173ffffffffffffffffffffffffffffffffffffffff021916908373ffffffffffffffffffffffffffffffffffffffff160217905550808273ffffffffffffffffffffffffffffffffffffffff168473ffffffffffffffffffffffffffffffffffffffff167fddf252ad1be2c89b69c2b068fc378daa952ba7f163c4a11628f55a4df523b3ef60405160405180910390a4505050565b6000600a60009054906101000a900473ffffffffffffffffffffffffffffffffffffffff16905081600a60006101000a81548173ffffffffffffffffffffffffffffffffffffffff021916908373ffffffffffffffffffffffffffffffffffffffff1602179055508173ffffffffffffffffffffffffffffffffffffffff168173ffffffffffffffffffffffffffffffffffffffff167f8be0079c531659141344cd1fd0a4f28419497f9722a3daafe3b4186f6b6457e060405160405180910390a35050565b8173ffffffffffffffffffffffffffffffffffffffff168373ffffffffffffffffffffffffffffffffffffffff161415611d0c576040517f08c379a0000000000000000000000000000000000000000000000000000000008152600401611d0390613ba8565b60405180910390fd5b80600560008573ffffffffffffffffffffffffffffffffffffffff1673ffffffffffffffffffffffffffffffffffffffff16815260200190815260200160002060008473ffffffffffffffffffffffffffffffffffffffff1673ffffffffffffffffffffffffffffffffffffffff16815260200190815260200160002060006101000a81548160ff0219169083151502179055508173ffffffffffffffffffffffffffffffffffffffff168373ffffffffffffffffffffffffffffffffffffffff167f17307eab39ab6107e8899845ad3d59bd9653f200f220920489ca2b5937696c3183604051611dfd9190612a0c565b60405180910390a3505050565b611e1584848461197b565b611e2184848484612232565b611e60576040517f08c379a0000000000000000000000000000000000000000000000000000000008152600401611e5790613c3a565b60405180910390fd5b50505050565b6060600d8054611e7590613034565b80601f0160208091040260200160405190810160405280929190818152602001828054611ea190613034565b8015611eee5780601f10611ec357610100808354040283529160200191611eee565b820191906000526020600020905b815481529060010190602001808311611ed157829003601f168201915b5050505050905090565b60606000821415611f40576040518060400160405280600181526020017f30000000000000000000000000000000000000000000000000000000000000008152509050612054565b600082905060005b60008214611f72578080611f5b90613c5a565b915050600a82611f6b91906132d4565b9150611f48565b60008167ffffffffffffffff811115611f8e57611f8d612c94565b5b6040519080825280601f01601f191660200182016040528015611fc05781602001600182028036833780820191505090505b5090505b6000851461204d57600182611fd99190613305565b9150600a85611fe89190613ca3565b6030611ff4919061337f565b60f81b81838151811061200a576120096135c2565b5b60200101907effffffffffffffffffffffffffffffffffffffffffffffffffffffffffffff1916908160001a905350600a8561204691906132d4565b9450611fc4565b8093505050505b919050565b60007f01ffc9a7000000000000000000000000000000000000000000000000000000007bffffffffffffffffffffffffffffffffffffffffffffffffffffffff1916827bffffffffffffffffffffffffffffffffffffffffffffffffffffffff1916149050919050565b6120cd83836123c9565b6120da6000848484612232565b612119576040517f08c379a000000000000000000000000000000000000000000000000000000000815260040161211090613c3a565b60405180910390fd5b505050565b612129838383612597565b600073ffffffffffffffffffffffffffffffffffffffff168373ffffffffffffffffffffffffffffffffffffffff16141561216c576121678161259c565b6121ab565b8173ffffffffffffffffffffffffffffffffffffffff168373ffffffffffffffffffffffffffffffffffffffff16146121aa576121a983826125e5565b5b5b600073ffffffffffffffffffffffffffffffffffffffff168273ffffffffffffffffffffffffffffffffffffffff1614156121ee576121e981612752565b61222d565b8273ffffffffffffffffffffffffffffffffffffffff168273ffffffffffffffffffffffffffffffffffffffff161461222c5761222b8282612823565b5b5b505050565b60006122538473ffffffffffffffffffffffffffffffffffffffff166128a2565b156123bc578373ffffffffffffffffffffffffffffffffffffffff1663150b7a0261227c611722565b8786866040518563ffffffff1660e01b815260040161229e9493929190613d29565b602060405180830381600087803b1580156122b857600080fd5b505af19250505080156122e957506040513d601f19601f820116820180604052508101906122e69190613d8a565b60015b61236c573d8060008114612319576040519150601f19603f3d011682016040523d82523d6000602084013e61231e565b606091505b50600081511415612364576040517f08c379a000000000000000000000000000000000000000000000000000000000815260040161235b90613c3a565b60405180910390fd5b805181602001fd5b63150b7a0260e01b7bffffffffffffffffffffffffffffffffffffffffffffffffffffffff1916817bffffffffffffffffffffffffffffffffffffffffffffffffffffffff1916149150506123c1565b600190505b949350505050565b600073ffffffffffffffffffffffffffffffffffffffff168273ffffffffffffffffffffffffffffffffffffffff161415612439576040517f08c379a000000000000000000000000000000000000000000000000000000000815260040161243090613e03565b60405180910390fd5b612442816116b6565b15612482576040517f08c379a000000000000000000000000000000000000000000000000000000000815260040161247990613e6f565b60405180910390fd5b61248e6000838361211e565b6001600360008473ffffffffffffffffffffffffffffffffffffffff1673ffffffffffffffffffffffffffffffffffffffff16815260200190815260200160002060008282546124de919061337f565b92505081905550816002600083815260200190815260200160002060006101000a81548173ffffffffffffffffffffffffffffffffffffffff021916908373ffffffffffffffffffffffffffffffffffffffff160217905550808273ffffffffffffffffffffffffffffffffffffffff16600073ffffffffffffffffffffffffffffffffffffffff167fddf252ad1be2c89b69c2b068fc378daa952ba7f163c4a11628f55a4df523b3ef60405160405180910390a45050565b505050565b6008805490506009600083815260200190815260200160002081905550600881908060018154018082558091505060019003906000526020600020016000909190919091505550565b600060016125f284610f21565b6125fc9190613305565b90506000600760008481526020019081526020016000205490508181146126e1576000600660008673ffffffffffffffffffffffffffffffffffffffff1673ffffffffffffffffffffffffffffffffffffffff168152602001908152602001600020600084815260200190815260200160002054905080600660008773ffffffffffffffffffffffffffffffffffffffff1673ffffffffffffffffffffffffffffffffffffffff168152602001908152602001600020600084815260200190815260200160002081905550816007600083815260200190815260200160002081905550505b6007600084815260200190815260200160002060009055600660008573ffffffffffffffffffffffffffffffffffffffff1673ffffffffffffffffffffffffffffffffffffffff16815260200190815260200160002060008381526020019081526020016000206000905550505050565b600060016008805490506127669190613305565b9050600060096000848152602001908152602001600020549050600060088381548110612796576127956135c2565b5b9060005260206000200154905080600883815481106127b8576127b76135c2565b5b90600052602060002001819055508160096000838152602001908152602001600020819055506009600085815260200190815260200160002060009055600880548061280757612806613e8f565b5b6001900381819060005260206000200160009055905550505050565b600061282e83610f21565b905081600660008573ffffffffffffffffffffffffffffffffffffffff1673ffffffffffffffffffffffffffffffffffffffff168152602001908152602001600020600083815260200190815260200160002081905550806007600084815260200190815260200160002081905550505050565b600080823b905060008111915050919050565b8280546128c190613034565b90600052602060002090601f0160209004810192826128e3576000855561292a565b82601f106128fc57805160ff191683800117855561292a565b8280016001018555821561292a579182015b8281111561292957825182559160200191906001019061290e565b5b509050612937919061293b565b5090565b5b8082111561295457600081600090555060010161293c565b5090565b6000604051905090565b600080fd5b600080fd5b60007fffffffff0000000000000000000000000000000000000000000000000000000082169050919050565b6129a18161296c565b81146129ac57600080fd5b50565b6000813590506129be81612998565b92915050565b6000602082840312156129da576129d9612962565b5b60006129e8848285016129af565b91505092915050565b60008115159050919050565b612a06816129f1565b82525050565b6000602082019050612a2160008301846129fd565b92915050565b600081519050919050565b600082825260208201905092915050565b60005b83811015612a61578082015181840152602081019050612a46565b83811115612a70576000848401525b50505050565b6000601f19601f8301169050919050565b6000612a9282612a27565b612a9c8185612a32565b9350612aac818560208601612a43565b612ab581612a76565b840191505092915050565b60006020820190508181036000830152612ada8184612a87565b905092915050565b6000819050919050565b612af581612ae2565b8114612b0057600080fd5b50565b600081359050612b1281612aec565b92915050565b600060208284031215612b2e57612b2d612962565b5b6000612b3c84828501612b03565b91505092915050565b600073ffffffffffffffffffffffffffffffffffffffff82169050919050565b6000612b7082612b45565b9050919050565b612b8081612b65565b82525050565b6000602082019050612b9b6000830184612b77565b92915050565b612baa81612b65565b8114612bb557600080fd5b50565b600081359050612bc781612ba1565b92915050565b60008060408385031215612be457612be3612962565b5b6000612bf285828601612bb8565b9250506020612c0385828601612b03565b9150509250929050565b612c1681612ae2565b82525050565b6000602082019050612c316000830184612c0d565b92915050565b600080600060608486031215612c5057612c4f612962565b5b6000612c5e86828701612bb8565b9350506020612c6f86828701612bb8565b9250506040612c8086828701612b03565b9150509250925092565b600080fd5b600080fd5b7f4e487b7100000000000000000000000000000000000000000000000000000000600052604160045260246000fd5b612ccc82612a76565b810181811067ffffffffffffffff82111715612ceb57612cea612c94565b5b80604052505050565b6000612cfe612958565b9050612d0a8282612cc3565b919050565b600067ffffffffffffffff821115612d2a57612d29612c94565b5b612d3382612a76565b9050602081019050919050565b82818337600083830152505050565b6000612d62612d5d84612d0f565b612cf4565b905082815260208101848484011115612d7e57612d7d612c8f565b5b612d89848285612d40565b509392505050565b600082601f830112612da657612da5612c8a565b5b8135612db6848260208601612d4f565b91505092915050565b600060208284031215612dd557612dd4612962565b5b600082013567ffffffffffffffff811115612df357612df2612967565b5b612dff84828501612d91565b91505092915050565b600060208284031215612e1e57612e1d612962565b5b6000612e2c84828501612bb8565b91505092915050565b612e3e816129f1565b8114612e4957600080fd5b50565b600081359050612e5b81612e35565b92915050565b60008060408385031215612e7857612e77612962565b5b6000612e8685828601612bb8565b9250506020612e9785828601612e4c565b9150509250929050565b600067ffffffffffffffff821115612ebc57612ebb612c94565b5b612ec582612a76565b9050602081019050919050565b6000612ee5612ee084612ea1565b612cf4565b905082815260208101848484011115612f0157612f00612c8f565b5b612f0c848285612d40565b509392505050565b600082601f830112612f2957612f28612c8a565b5b8135612f39848260208601612ed2565b91505092915050565b60008060008060808587031215612f5c57612f5b612962565b5b6000612f6a87828801612bb8565b9450506020612f7b87828801612bb8565b9350506040612f8c87828801612b03565b925050606085013567ffffffffffffffff811115612fad57612fac612967565b5b612fb987828801612f14565b91505092959194509250565b60008060408385031215612fdc57612fdb612962565b5b6000612fea85828601612bb8565b9250506020612ffb85828601612bb8565b9150509250929050565b7f4e487b7100000000000000000000000000000000000000000000000000000000600052602260045260246000fd5b6000600282049050600182168061304c57607f821691505b602082108114156130605761305f613005565b5b50919050565b7f4552433732313a20617070726f76656420717565727920666f72206e6f6e657860008201527f697374656e7420746f6b656e0000000000000000000000000000000000000000602082015250565b60006130c2602c83612a32565b91506130cd82613066565b604082019050919050565b600060208201905081810360008301526130f1816130b5565b9050919050565b7f4552433732313a20617070726f76616c20746f2063757272656e74206f776e6560008201527f7200000000000000000000000000000000000000000000000000000000000000602082015250565b6000613154602183612a32565b915061315f826130f8565b604082019050919050565b6000602082019050818103600083015261318381613147565b9050919050565b7f4552433732313a20617070726f76652063616c6c6572206973206e6f74206f7760008201527f6e6572206e6f7220617070726f76656420666f7220616c6c0000000000000000602082015250565b60006131e6603883612a32565b91506131f18261318a565b604082019050919050565b60006020820190508181036000830152613215816131d9565b9050919050565b7f4e487b7100000000000000000000000000000000000000000000000000000000600052601160045260246000fd5b600061325682612ae2565b915061326183612ae2565b9250817fffffffffffffffffffffffffffffffffffffffffffffffffffffffffffffffff048311821515161561329a5761329961321c565b5b828202905092915050565b7f4e487b7100000000000000000000000000000000000000000000000000000000600052601260045260246000fd5b60006132df82612ae2565b91506132ea83612ae2565b9250826132fa576132f96132a5565b5b828204905092915050565b600061331082612ae2565b915061331b83612ae2565b92508282101561332e5761332d61321c565b5b828203905092915050565b600081905092915050565b50565b6000613354600083613339565b915061335f82613344565b600082019050919050565b600061337582613347565b9150819050919050565b600061338a82612ae2565b915061339583612ae2565b9250827fffffffffffffffffffffffffffffffffffffffffffffffffffffffffffffffff038211156133ca576133c961321c565b5b828201905092915050565b7f4552433732313a207472616e736665722063616c6c6572206973206e6f74206f60008201527f776e6572206e6f7220617070726f766564000000000000000000000000000000602082015250565b6000613431603183612a32565b915061343c826133d5565b604082019050919050565b6000602082019050818103600083015261346081613424565b9050919050565b600060608201905061347c6000830186612b77565b6134896020830185612b77565b6134966040830184612c0d565b949350505050565b7f455243373231456e756d657261626c653a206f776e657220696e646578206f7560008201527f74206f6620626f756e6473000000000000000000000000000000000000000000602082015250565b60006134fa602b83612a32565b91506135058261349e565b604082019050919050565b60006020820190508181036000830152613529816134ed565b9050919050565b7f455243373231456e756d657261626c653a20676c6f62616c20696e646578206f60008201527f7574206f6620626f756e64730000000000000000000000000000000000000000602082015250565b600061358c602c83612a32565b915061359782613530565b604082019050919050565b600060208201905081810360008301526135bb8161357f565b9050919050565b7f4e487b7100000000000000000000000000000000000000000000000000000000600052603260045260246000fd5b7f4f776e61626c653a2063616c6c6572206973206e6f7420746865206f776e6572600082015250565b6000613627602083612a32565b9150613632826135f1565b602082019050919050565b600060208201905081810360008301526136568161361a565b9050919050565b7f4552433732313a206f776e657220717565727920666f72206e6f6e657869737460008201527f656e7420746f6b656e0000000000000000000000000000000000000000000000602082015250565b60006136b9602983612a32565b91506136c48261365d565b604082019050919050565b600060208201905081810360008301526136e8816136ac565b9050919050565b7f4552433732313a2062616c616e636520717565727920666f7220746865207a6560008201527f726f206164647265737300000000000000000000000000000000000000000000602082015250565b600061374b602a83612a32565b9150613756826136ef565b604082019050919050565b6000602082019050818103600083015261377a8161373e565b9050919050565b7f4552433732314d657461646174613a2055524920717565727920666f72206e6f60008201527f6e6578697374656e7420746f6b656e0000000000000000000000000000000000602082015250565b60006137dd602f83612a32565b91506137e882613781565b604082019050919050565b6000602082019050818103600083015261380c816137d0565b9050919050565b600081905092915050565b600061382982612a27565b6138338185613813565b9350613843818560208601612a43565b80840191505092915050565b60008190508160005260206000209050919050565b6000815461387181613034565b61387b8186613813565b9450600182166000811461389657600181146138a7576138da565b60ff198316865281860193506138da565b6138b08561384f565b60005b838110156138d2578154818901526001820191506020810190506138b3565b838801955050505b50505092915050565b60006138ef828661381e565b91506138fb828561381e565b91506139078284613864565b9150819050949350505050565b7f4f776e61626c653a206e6577206f776e657220697320746865207a65726f206160008201527f6464726573730000000000000000000000000000000000000000000000000000602082015250565b6000613970602683612a32565b915061397b82613914565b604082019050919050565b6000602082019050818103600083015261399f81613963565b9050919050565b7f4552433732313a206f70657261746f7220717565727920666f72206e6f6e657860008201527f697374656e7420746f6b656e0000000000000000000000000000000000000000602082015250565b6000613a02602c83612a32565b9150613a0d826139a6565b604082019050919050565b60006020820190508181036000830152613a31816139f5565b9050919050565b7f4552433732313a207472616e73666572206f6620746f6b656e2074686174206960008201527f73206e6f74206f776e0000000000000000000000000000000000000000000000602082015250565b6000613a94602983612a32565b9150613a9f82613a38565b604082019050919050565b60006020820190508181036000830152613ac381613a87565b9050919050565b7f4552433732313a207472616e7366657220746f20746865207a65726f2061646460008201527f7265737300000000000000000000000000000000000000000000000000000000602082015250565b6000613b26602483612a32565b9150613b3182613aca565b604082019050919050565b60006020820190508181036000830152613b5581613b19565b9050919050565b7f4552433732313a20617070726f766520746f2063616c6c657200000000000000600082015250565b6000613b92601983612a32565b9150613b9d82613b5c565b602082019050919050565b60006020820190508181036000830152613bc181613b85565b9050919050565b7f4552433732313a207472616e7366657220746f206e6f6e20455243373231526560008201527f63656976657220696d706c656d656e7465720000000000000000000000000000602082015250565b6000613c24603283612a32565b9150613c2f82613bc8565b604082019050919050565b60006020820190508181036000830152613c5381613c17565b9050919050565b6000613c6582612ae2565b91507fffffffffffffffffffffffffffffffffffffffffffffffffffffffffffffffff821415613c9857613c9761321c565b5b600182019050919050565b6000613cae82612ae2565b9150613cb983612ae2565b925082613cc957613cc86132a5565b5b828206905092915050565b600081519050919050565b600082825260208201905092915050565b6000613cfb82613cd4565b613d058185613cdf565b9350613d15818560208601612a43565b613d1e81612a76565b840191505092915050565b6000608082019050613d3e6000830187612b77565b613d4b6020830186612b77565b613d586040830185612c0d565b8181036060830152613d6a8184613cf0565b905095945050505050565b600081519050613d8481612998565b92915050565b600060208284031215613da057613d9f612962565b5b6000613dae84828501613d75565b91505092915050565b7f4552433732313a206d696e7420746f20746865207a65726f2061646472657373600082015250565b6000613ded602083612a32565b9150613df882613db7565b602082019050919050565b60006020820190508181036000830152613e1c81613de0565b9050919050565b7f4552433732313a20746f6b656e20616c7265616479206d696e74656400000000600082015250565b6000613e59601c83612a32565b9150613e6482613e23565b602082019050919050565b60006020820190508181036000830152613e8881613e4c565b9050919050565b7f4e487b7100000000000000000000000000000000000000000000000000000000600052603160045260246000fdfea26469706673582212202a112974fb10d675538e6a7e554a76da3d061e46e7eae7606b9adb8b1c22128f64736f6c63430008090033",
  "immutableReferences": {},
  "source": "// SPDX-License-Identifier: MIT\n\nimport \"./ERC721.sol\";\nimport \"./ERC721Enumerable.sol\";\nimport \"@openzeppelin/contracts/access/Ownable.sol\";\n\npragma solidity >=0.7.0 <0.9.0;\n\ncontract NFT is ERC721Enumerable, Ownable {\n    using Strings for uint256;\n\n    uint256 public cost = 1 ether;\n    uint256 public maxSupply = 20;\n\n    string baseURI;\n    string public baseExtension = \".json\";\n\n    address public artist;\n    uint256 public royalityFee;\n\n    event Sale(address from, address to, uint256 value);\n\n    constructor(\n        string memory _name,\n        string memory _symbol,\n        string memory _initBaseURI,\n        uint256 _royalityFee,\n        address _artist\n    ) ERC721(_name, _symbol) {\n        setBaseURI(_initBaseURI);\n        royalityFee = _royalityFee;\n        artist = _artist;\n    }\n\n    // Public functions\n    function mint() public payable {\n        uint256 supply = totalSupply();\n        require(supply <= maxSupply);\n\n        if (msg.sender != owner()) {\n            require(msg.value >= cost);\n\n            // Pay royality to artist, and remaining to deployer of contract\n\n            uint256 royality = (msg.value * royalityFee) / 100;\n            _payRoyality(royality);\n\n            (bool success2, ) = payable(owner()).call{\n                value: (msg.value - royality)\n            }(\"\");\n            require(success2);\n        }\n\n        _safeMint(msg.sender, supply + 1);\n    }\n\n    function tokenURI(uint256 tokenId)\n        public\n        view\n        virtual\n        override\n        returns (string memory)\n    {\n        require(\n            _exists(tokenId),\n            \"ERC721Metadata: URI query for nonexistent token\"\n        );\n\n        string memory currentBaseURI = _baseURI();\n        return\n            bytes(currentBaseURI).length > 0\n                ? string(\n                    abi.encodePacked(\n                        currentBaseURI,\n                        tokenId.toString(),\n                        baseExtension\n                    )\n                )\n                : \"\";\n    }\n\n    function transferFrom(\n        address from,\n        address to,\n        uint256 tokenId\n    ) public payable override {\n        require(\n            _isApprovedOrOwner(_msgSender(), tokenId),\n            \"ERC721: transfer caller is not owner nor approved\"\n        );\n\n        if (msg.value > 0) {\n            uint256 royality = (msg.value * royalityFee) / 100;\n            _payRoyality(royality);\n\n            (bool success2, ) = payable(from).call{value: msg.value - royality}(\n                \"\"\n            );\n            require(success2);\n\n            emit Sale(from, to, msg.value);\n        }\n\n        _transfer(from, to, tokenId);\n    }\n\n    function safeTransferFrom(\n        address from,\n        address to,\n        uint256 tokenId\n    ) public payable override {\n        if (msg.value > 0) {\n            uint256 royality = (msg.value * royalityFee) / 100;\n            _payRoyality(royality);\n\n            (bool success2, ) = payable(from).call{value: msg.value - royality}(\n                \"\"\n            );\n            require(success2);\n\n            emit Sale(from, to, msg.value);\n        }\n\n        safeTransferFrom(from, to, tokenId, \"\");\n    }\n\n    function safeTransferFrom(\n        address from,\n        address to,\n        uint256 tokenId,\n        bytes memory _data\n    ) public payable override {\n        require(\n            _isApprovedOrOwner(_msgSender(), tokenId),\n            \"ERC721: transfer caller is not owner nor approved\"\n        );\n\n        if (msg.value > 0) {\n            uint256 royality = (msg.value * royalityFee) / 100;\n            _payRoyality(royality);\n\n            (bool success2, ) = payable(from).call{value: msg.value - royality}(\n                \"\"\n            );\n            require(success2);\n\n            emit Sale(from, to, msg.value);\n        }\n\n        _safeTransfer(from, to, tokenId, _data);\n    }\n\n    // Internal functions\n    function _baseURI() internal view virtual override returns (string memory) {\n        return baseURI;\n    }\n\n    function _payRoyality(uint256 _royalityFee) internal {\n        (bool success1, ) = payable(artist).call{value: _royalityFee}(\"\");\n        require(success1);\n    }\n\n    // Owner functions\n    function setBaseURI(string memory _newBaseURI) public onlyOwner {\n        baseURI = _newBaseURI;\n    }\n\n    function setRoyalityFee(uint256 _royalityFee) public onlyOwner {\n        royalityFee = _royalityFee;\n    }\n}\n",
  "sourcePath": "C:/Users/lazar/Desktop/nft_royalties/contracts/NFT.sol",
  "compiler": {
    "name": "solc",
    "version": "0.8.9+commit.e5eed63a.Emscripten.clang"
  },
  "schemaVersion": "3.2.3",
  "updatedAt": "2022-09-09T15:22:30.640Z",
  "networkType": "ethereum",
  "devdoc": {
    "kind": "dev",
    "methods": {
      "approve(address,uint256)": {
        "details": "See {IERC721-approve}."
      },
      "balanceOf(address)": {
        "details": "See {IERC721-balanceOf}."
      },
      "getApproved(uint256)": {
        "details": "See {IERC721-getApproved}."
      },
      "isApprovedForAll(address,address)": {
        "details": "See {IERC721-isApprovedForAll}."
      },
      "name()": {
        "details": "See {IERC721Metadata-name}."
      },
      "owner()": {
        "details": "Returns the address of the current owner."
      },
      "ownerOf(uint256)": {
        "details": "See {IERC721-ownerOf}."
      },
      "renounceOwnership()": {
        "details": "Leaves the contract without owner. It will not be possible to call `onlyOwner` functions anymore. Can only be called by the current owner. NOTE: Renouncing ownership will leave the contract without an owner, thereby removing any functionality that is only available to the owner."
      },
      "safeTransferFrom(address,address,uint256)": {
        "details": "See {IERC721-safeTransferFrom}."
      },
      "safeTransferFrom(address,address,uint256,bytes)": {
        "details": "See {IERC721-safeTransferFrom}."
      },
      "setApprovalForAll(address,bool)": {
        "details": "See {IERC721-setApprovalForAll}."
      },
      "supportsInterface(bytes4)": {
        "details": "See {IERC165-supportsInterface}."
      },
      "symbol()": {
        "details": "See {IERC721Metadata-symbol}."
      },
      "tokenByIndex(uint256)": {
        "details": "See {IERC721Enumerable-tokenByIndex}."
      },
      "tokenOfOwnerByIndex(address,uint256)": {
        "details": "See {IERC721Enumerable-tokenOfOwnerByIndex}."
      },
      "tokenURI(uint256)": {
        "details": "See {IERC721Metadata-tokenURI}."
      },
      "totalSupply()": {
        "details": "See {IERC721Enumerable-totalSupply}."
      },
      "transferFrom(address,address,uint256)": {
        "details": "See {IERC721-transferFrom}."
      },
      "transferOwnership(address)": {
        "details": "Transfers ownership of the contract to a new account (`newOwner`). Can only be called by the current owner."
      }
    },
    "version": 1
  },
  "userdoc": {
    "kind": "user",
    "methods": {},
    "version": 1
  }
}